{
  "_format": "hh-sol-artifact-1",
  "contractName": "ArbitrageVault",
  "sourceName": "contracts/ArbitrageVault.sol",
  "abi": [
    {
      "inputs": [
        {
          "internalType": "contract IERC20",
          "name": "asset",
          "type": "address"
        },
        {
          "internalType": "string",
          "name": "name",
          "type": "string"
        },
        {
          "internalType": "string",
          "name": "symbol",
          "type": "string"
        }
      ],
      "stateMutability": "nonpayable",
      "type": "constructor"
    },
    {
      "anonymous": false,
      "inputs": [
        {
          "indexed": true,
          "internalType": "address",
          "name": "owner",
          "type": "address"
        },
        {
          "indexed": true,
          "internalType": "address",
          "name": "spender",
          "type": "address"
        },
        {
          "indexed": false,
          "internalType": "uint256",
          "name": "value",
          "type": "uint256"
        }
      ],
      "name": "Approval",
      "type": "event"
    },
    {
      "anonymous": false,
      "inputs": [
        {
          "indexed": true,
          "internalType": "address",
          "name": "strategist",
          "type": "address"
        },
        {
          "indexed": true,
          "internalType": "address",
          "name": "dexBuy",
          "type": "address"
        },
        {
          "indexed": true,
          "internalType": "address",
          "name": "dexSell",
          "type": "address"
        },
        {
          "indexed": false,
          "internalType": "address",
          "name": "tokenTrade",
          "type": "address"
        },
        {
          "indexed": false,
          "internalType": "uint256",
          "name": "profit",
          "type": "uint256"
        }
      ],
      "name": "ArbitrageExecuted",
      "type": "event"
    },
    {
      "anonymous": false,
      "inputs": [
        {
          "indexed": true,
          "internalType": "address",
          "name": "sender",
          "type": "address"
        },
        {
          "indexed": true,
          "internalType": "address",
          "name": "owner",
          "type": "address"
        },
        {
          "indexed": false,
          "internalType": "uint256",
          "name": "assets",
          "type": "uint256"
        },
        {
          "indexed": false,
          "internalType": "uint256",
          "name": "shares",
          "type": "uint256"
        }
      ],
      "name": "Deposit",
      "type": "event"
    },
    {
      "anonymous": false,
      "inputs": [
        {
          "indexed": true,
          "internalType": "address",
          "name": "dex",
          "type": "address"
        },
        {
          "indexed": false,
          "internalType": "bool",
          "name": "status",
          "type": "bool"
        }
      ],
      "name": "DexWhitelisted",
      "type": "event"
    },
    {
      "anonymous": false,
      "inputs": [
        {
          "indexed": true,
          "internalType": "bytes32",
          "name": "role",
          "type": "bytes32"
        },
        {
          "indexed": true,
          "internalType": "bytes32",
          "name": "previousAdminRole",
          "type": "bytes32"
        },
        {
          "indexed": true,
          "internalType": "bytes32",
          "name": "newAdminRole",
          "type": "bytes32"
        }
      ],
      "name": "RoleAdminChanged",
      "type": "event"
    },
    {
      "anonymous": false,
      "inputs": [
        {
          "indexed": true,
          "internalType": "bytes32",
          "name": "role",
          "type": "bytes32"
        },
        {
          "indexed": true,
          "internalType": "address",
          "name": "account",
          "type": "address"
        },
        {
          "indexed": true,
          "internalType": "address",
          "name": "sender",
          "type": "address"
        }
      ],
      "name": "RoleGranted",
      "type": "event"
    },
    {
      "anonymous": false,
      "inputs": [
        {
          "indexed": true,
          "internalType": "bytes32",
          "name": "role",
          "type": "bytes32"
        },
        {
          "indexed": true,
          "internalType": "address",
          "name": "account",
          "type": "address"
        },
        {
          "indexed": true,
          "internalType": "address",
          "name": "sender",
          "type": "address"
        }
      ],
      "name": "RoleRevoked",
      "type": "event"
    },
    {
      "anonymous": false,
      "inputs": [
        {
          "indexed": true,
          "internalType": "address",
          "name": "from",
          "type": "address"
        },
        {
          "indexed": true,
          "internalType": "address",
          "name": "to",
          "type": "address"
        },
        {
          "indexed": false,
          "internalType": "uint256",
          "name": "value",
          "type": "uint256"
        }
      ],
      "name": "Transfer",
      "type": "event"
    },
    {
      "anonymous": false,
      "inputs": [
        {
          "indexed": true,
          "internalType": "address",
          "name": "sender",
          "type": "address"
        },
        {
          "indexed": true,
          "internalType": "address",
          "name": "receiver",
          "type": "address"
        },
        {
          "indexed": true,
          "internalType": "address",
          "name": "owner",
          "type": "address"
        },
        {
          "indexed": false,
          "internalType": "uint256",
          "name": "assets",
          "type": "uint256"
        },
        {
          "indexed": false,
          "internalType": "uint256",
          "name": "shares",
          "type": "uint256"
        }
      ],
      "name": "Withdraw",
      "type": "event"
    },
    {
      "inputs": [],
      "name": "DEFAULT_ADMIN_ROLE",
      "outputs": [
        {
          "internalType": "bytes32",
          "name": "",
          "type": "bytes32"
        }
      ],
      "stateMutability": "view",
      "type": "function"
    },
    {
      "inputs": [],
      "name": "STRATEGIST_ROLE",
      "outputs": [
        {
          "internalType": "bytes32",
          "name": "",
          "type": "bytes32"
        }
      ],
      "stateMutability": "view",
      "type": "function"
    },
    {
      "inputs": [
        {
          "internalType": "address",
          "name": "owner",
          "type": "address"
        },
        {
          "internalType": "address",
          "name": "spender",
          "type": "address"
        }
      ],
      "name": "allowance",
      "outputs": [
        {
          "internalType": "uint256",
          "name": "",
          "type": "uint256"
        }
      ],
      "stateMutability": "view",
      "type": "function"
    },
    {
      "inputs": [
        {
          "internalType": "address",
          "name": "spender",
          "type": "address"
        },
        {
          "internalType": "uint256",
          "name": "amount",
          "type": "uint256"
        }
      ],
      "name": "approve",
      "outputs": [
        {
          "internalType": "bool",
          "name": "",
          "type": "bool"
        }
      ],
      "stateMutability": "nonpayable",
      "type": "function"
    },
    {
      "inputs": [],
      "name": "asset",
      "outputs": [
        {
          "internalType": "address",
          "name": "",
          "type": "address"
        }
      ],
      "stateMutability": "view",
      "type": "function"
    },
    {
      "inputs": [
        {
          "internalType": "address",
          "name": "account",
          "type": "address"
        }
      ],
      "name": "balanceOf",
      "outputs": [
        {
          "internalType": "uint256",
          "name": "",
          "type": "uint256"
        }
      ],
      "stateMutability": "view",
      "type": "function"
    },
    {
      "inputs": [
        {
          "internalType": "uint256",
          "name": "shares",
          "type": "uint256"
        }
      ],
      "name": "convertToAssets",
      "outputs": [
        {
          "internalType": "uint256",
          "name": "",
          "type": "uint256"
        }
      ],
      "stateMutability": "view",
      "type": "function"
    },
    {
      "inputs": [
        {
          "internalType": "uint256",
          "name": "assets",
          "type": "uint256"
        }
      ],
      "name": "convertToShares",
      "outputs": [
        {
          "internalType": "uint256",
          "name": "",
          "type": "uint256"
        }
      ],
      "stateMutability": "view",
      "type": "function"
    },
    {
      "inputs": [],
      "name": "decimals",
      "outputs": [
        {
          "internalType": "uint8",
          "name": "",
          "type": "uint8"
        }
      ],
      "stateMutability": "view",
      "type": "function"
    },
    {
      "inputs": [
        {
          "internalType": "address",
          "name": "spender",
          "type": "address"
        },
        {
          "internalType": "uint256",
          "name": "subtractedValue",
          "type": "uint256"
        }
      ],
      "name": "decreaseAllowance",
      "outputs": [
        {
          "internalType": "bool",
          "name": "",
          "type": "bool"
        }
      ],
      "stateMutability": "nonpayable",
      "type": "function"
    },
    {
      "inputs": [
        {
          "internalType": "uint256",
          "name": "assets",
          "type": "uint256"
        },
        {
          "internalType": "address",
          "name": "receiver",
          "type": "address"
        }
      ],
      "name": "deposit",
      "outputs": [
        {
          "internalType": "uint256",
          "name": "",
          "type": "uint256"
        }
      ],
      "stateMutability": "nonpayable",
      "type": "function"
    },
    {
      "inputs": [
        {
          "internalType": "address",
          "name": "dexBuy",
          "type": "address"
        },
        {
          "internalType": "address",
          "name": "dexSell",
          "type": "address"
        },
        {
          "internalType": "address",
          "name": "tokenTrade",
          "type": "address"
        },
        {
          "internalType": "uint256",
          "name": "amountBase",
          "type": "uint256"
        }
      ],
      "name": "executeArbitrage",
      "outputs": [],
      "stateMutability": "nonpayable",
      "type": "function"
    },
    {
      "inputs": [
        {
          "internalType": "bytes32",
          "name": "role",
          "type": "bytes32"
        }
      ],
      "name": "getRoleAdmin",
      "outputs": [
        {
          "internalType": "bytes32",
          "name": "",
          "type": "bytes32"
        }
      ],
      "stateMutability": "view",
      "type": "function"
    },
    {
      "inputs": [
        {
          "internalType": "bytes32",
          "name": "role",
          "type": "bytes32"
        },
        {
          "internalType": "address",
          "name": "account",
          "type": "address"
        }
      ],
      "name": "grantRole",
      "outputs": [],
      "stateMutability": "nonpayable",
      "type": "function"
    },
    {
      "inputs": [
        {
          "internalType": "bytes32",
          "name": "role",
          "type": "bytes32"
        },
        {
          "internalType": "address",
          "name": "account",
          "type": "address"
        }
      ],
      "name": "hasRole",
      "outputs": [
        {
          "internalType": "bool",
          "name": "",
          "type": "bool"
        }
      ],
      "stateMutability": "view",
      "type": "function"
    },
    {
      "inputs": [
        {
          "internalType": "address",
          "name": "spender",
          "type": "address"
        },
        {
          "internalType": "uint256",
          "name": "addedValue",
          "type": "uint256"
        }
      ],
      "name": "increaseAllowance",
      "outputs": [
        {
          "internalType": "bool",
          "name": "",
          "type": "bool"
        }
      ],
      "stateMutability": "nonpayable",
      "type": "function"
    },
    {
      "inputs": [
        {
          "internalType": "address",
          "name": "",
          "type": "address"
        }
      ],
      "name": "maxDeposit",
      "outputs": [
        {
          "internalType": "uint256",
          "name": "",
          "type": "uint256"
        }
      ],
      "stateMutability": "view",
      "type": "function"
    },
    {
      "inputs": [
        {
          "internalType": "address",
          "name": "",
          "type": "address"
        }
      ],
      "name": "maxMint",
      "outputs": [
        {
          "internalType": "uint256",
          "name": "",
          "type": "uint256"
        }
      ],
      "stateMutability": "view",
      "type": "function"
    },
    {
      "inputs": [
        {
          "internalType": "address",
          "name": "owner",
          "type": "address"
        }
      ],
      "name": "maxRedeem",
      "outputs": [
        {
          "internalType": "uint256",
          "name": "",
          "type": "uint256"
        }
      ],
      "stateMutability": "view",
      "type": "function"
    },
    {
      "inputs": [
        {
          "internalType": "address",
          "name": "owner",
          "type": "address"
        }
      ],
      "name": "maxWithdraw",
      "outputs": [
        {
          "internalType": "uint256",
          "name": "",
          "type": "uint256"
        }
      ],
      "stateMutability": "view",
      "type": "function"
    },
    {
      "inputs": [
        {
          "internalType": "uint256",
          "name": "shares",
          "type": "uint256"
        },
        {
          "internalType": "address",
          "name": "receiver",
          "type": "address"
        }
      ],
      "name": "mint",
      "outputs": [
        {
          "internalType": "uint256",
          "name": "",
          "type": "uint256"
        }
      ],
      "stateMutability": "nonpayable",
      "type": "function"
    },
    {
      "inputs": [],
      "name": "name",
      "outputs": [
        {
          "internalType": "string",
          "name": "",
          "type": "string"
        }
      ],
      "stateMutability": "view",
      "type": "function"
    },
    {
      "inputs": [
        {
          "internalType": "uint256",
          "name": "assets",
          "type": "uint256"
        }
      ],
      "name": "previewDeposit",
      "outputs": [
        {
          "internalType": "uint256",
          "name": "",
          "type": "uint256"
        }
      ],
      "stateMutability": "view",
      "type": "function"
    },
    {
      "inputs": [
        {
          "internalType": "uint256",
          "name": "shares",
          "type": "uint256"
        }
      ],
      "name": "previewMint",
      "outputs": [
        {
          "internalType": "uint256",
          "name": "",
          "type": "uint256"
        }
      ],
      "stateMutability": "view",
      "type": "function"
    },
    {
      "inputs": [
        {
          "internalType": "uint256",
          "name": "shares",
          "type": "uint256"
        }
      ],
      "name": "previewRedeem",
      "outputs": [
        {
          "internalType": "uint256",
          "name": "",
          "type": "uint256"
        }
      ],
      "stateMutability": "view",
      "type": "function"
    },
    {
      "inputs": [
        {
          "internalType": "uint256",
          "name": "assets",
          "type": "uint256"
        }
      ],
      "name": "previewWithdraw",
      "outputs": [
        {
          "internalType": "uint256",
          "name": "",
          "type": "uint256"
        }
      ],
      "stateMutability": "view",
      "type": "function"
    },
    {
      "inputs": [
        {
          "internalType": "uint256",
          "name": "shares",
          "type": "uint256"
        },
        {
          "internalType": "address",
          "name": "receiver",
          "type": "address"
        },
        {
          "internalType": "address",
          "name": "owner",
          "type": "address"
        }
      ],
      "name": "redeem",
      "outputs": [
        {
          "internalType": "uint256",
          "name": "",
          "type": "uint256"
        }
      ],
      "stateMutability": "nonpayable",
      "type": "function"
    },
    {
      "inputs": [
        {
          "internalType": "bytes32",
          "name": "role",
          "type": "bytes32"
        },
        {
          "internalType": "address",
          "name": "account",
          "type": "address"
        }
      ],
      "name": "renounceRole",
      "outputs": [],
      "stateMutability": "nonpayable",
      "type": "function"
    },
    {
      "inputs": [
        {
          "internalType": "bytes32",
          "name": "role",
          "type": "bytes32"
        },
        {
          "internalType": "address",
          "name": "account",
          "type": "address"
        }
      ],
      "name": "revokeRole",
      "outputs": [],
      "stateMutability": "nonpayable",
      "type": "function"
    },
    {
      "inputs": [
        {
          "internalType": "address",
          "name": "dex",
          "type": "address"
        },
        {
          "internalType": "bool",
          "name": "status",
          "type": "bool"
        }
      ],
      "name": "setWhitelistedDex",
      "outputs": [],
      "stateMutability": "nonpayable",
      "type": "function"
    },
    {
      "inputs": [
        {
          "internalType": "bytes4",
          "name": "interfaceId",
          "type": "bytes4"
        }
      ],
      "name": "supportsInterface",
      "outputs": [
        {
          "internalType": "bool",
          "name": "",
          "type": "bool"
        }
      ],
      "stateMutability": "view",
      "type": "function"
    },
    {
      "inputs": [],
      "name": "symbol",
      "outputs": [
        {
          "internalType": "string",
          "name": "",
          "type": "string"
        }
      ],
      "stateMutability": "view",
      "type": "function"
    },
    {
      "inputs": [],
      "name": "totalAssets",
      "outputs": [
        {
          "internalType": "uint256",
          "name": "",
          "type": "uint256"
        }
      ],
      "stateMutability": "view",
      "type": "function"
    },
    {
      "inputs": [],
      "name": "totalSupply",
      "outputs": [
        {
          "internalType": "uint256",
          "name": "",
          "type": "uint256"
        }
      ],
      "stateMutability": "view",
      "type": "function"
    },
    {
      "inputs": [
        {
          "internalType": "address",
          "name": "to",
          "type": "address"
        },
        {
          "internalType": "uint256",
          "name": "amount",
          "type": "uint256"
        }
      ],
      "name": "transfer",
      "outputs": [
        {
          "internalType": "bool",
          "name": "",
          "type": "bool"
        }
      ],
      "stateMutability": "nonpayable",
      "type": "function"
    },
    {
      "inputs": [
        {
          "internalType": "address",
          "name": "from",
          "type": "address"
        },
        {
          "internalType": "address",
          "name": "to",
          "type": "address"
        },
        {
          "internalType": "uint256",
          "name": "amount",
          "type": "uint256"
        }
      ],
      "name": "transferFrom",
      "outputs": [
        {
          "internalType": "bool",
          "name": "",
          "type": "bool"
        }
      ],
      "stateMutability": "nonpayable",
      "type": "function"
    },
    {
      "inputs": [
        {
          "internalType": "address",
          "name": "",
          "type": "address"
        }
      ],
      "name": "whitelistedDexes",
      "outputs": [
        {
          "internalType": "bool",
          "name": "",
          "type": "bool"
        }
      ],
      "stateMutability": "view",
      "type": "function"
    },
    {
      "inputs": [
        {
          "internalType": "uint256",
          "name": "assets",
          "type": "uint256"
        },
        {
          "internalType": "address",
          "name": "receiver",
          "type": "address"
        },
        {
          "internalType": "address",
          "name": "owner",
          "type": "address"
        }
      ],
      "name": "withdraw",
      "outputs": [
        {
          "internalType": "uint256",
          "name": "",
          "type": "uint256"
        }
      ],
      "stateMutability": "nonpayable",
      "type": "function"
    }
  ],
  "bytecode": "0x60c06040523480156200001157600080fd5b50604051620055453803806200554583398181016040528101906200003791906200059d565b82828281600390816200004b919062000882565b5080600490816200005d919062000882565b5050506000806200007483620000f260201b60201c565b91509150816200008657601262000088565b805b60ff1660a08160ff16815250508273ffffffffffffffffffffffffffffffffffffffff1660808173ffffffffffffffffffffffffffffffffffffffff16815250505050506001600681905550620000e96000801b336200022c60201b60201c565b50505062000a32565b6000806000808473ffffffffffffffffffffffffffffffffffffffff1663313ce56760e01b604051602401604051602081830303815290604052907bffffffffffffffffffffffffffffffffffffffffffffffffffffffff19166020820180517bffffffffffffffffffffffffffffffffffffffffffffffffffffffff8381831617835250505050604051620001899190620009b6565b600060405180830381855afa9150503d8060008114620001c6576040519150601f19603f3d011682016040523d82523d6000602084013e620001cb565b606091505b5091509150818015620001e057506020815110155b156200021d57600081806020019051810190620001fe919062000a00565b905060ff801681116200021b576001819450945050505062000227565b505b6000809350935050505b915091565b6200023e82826200031e60201b60201c565b6200031a5760016005600084815260200190815260200160002060000160008373ffffffffffffffffffffffffffffffffffffffff1673ffffffffffffffffffffffffffffffffffffffff16815260200190815260200160002060006101000a81548160ff021916908315150217905550620002bf6200038960201b60201c565b73ffffffffffffffffffffffffffffffffffffffff168173ffffffffffffffffffffffffffffffffffffffff16837f2f8788117e7eff1d82e926ec794901d17c78024a50270940304540a733656f0d60405160405180910390a45b5050565b60006005600084815260200190815260200160002060000160008373ffffffffffffffffffffffffffffffffffffffff1673ffffffffffffffffffffffffffffffffffffffff16815260200190815260200160002060009054906101000a900460ff16905092915050565b600033905090565b6000604051905090565b600080fd5b600080fd5b600073ffffffffffffffffffffffffffffffffffffffff82169050919050565b6000620003d282620003a5565b9050919050565b6000620003e682620003c5565b9050919050565b620003f881620003d9565b81146200040457600080fd5b50565b6000815190506200041881620003ed565b92915050565b600080fd5b600080fd5b6000601f19601f8301169050919050565b7f4e487b7100000000000000000000000000000000000000000000000000000000600052604160045260246000fd5b620004738262000428565b810181811067ffffffffffffffff8211171562000495576200049462000439565b5b80604052505050565b6000620004aa62000391565b9050620004b8828262000468565b919050565b600067ffffffffffffffff821115620004db57620004da62000439565b5b620004e68262000428565b9050602081019050919050565b60005b8381101562000513578082015181840152602081019050620004f6565b60008484015250505050565b6000620005366200053084620004bd565b6200049e565b90508281526020810184848401111562000555576200055462000423565b5b62000562848285620004f3565b509392505050565b600082601f8301126200058257620005816200041e565b5b8151620005948482602086016200051f565b91505092915050565b600080600060608486031215620005b957620005b86200039b565b5b6000620005c98682870162000407565b935050602084015167ffffffffffffffff811115620005ed57620005ec620003a0565b5b620005fb868287016200056a565b925050604084015167ffffffffffffffff8111156200061f576200061e620003a0565b5b6200062d868287016200056a565b9150509250925092565b600081519050919050565b7f4e487b7100000000000000000000000000000000000000000000000000000000600052602260045260246000fd5b600060028204905060018216806200068a57607f821691505b602082108103620006a0576200069f62000642565b5b50919050565b60008190508160005260206000209050919050565b60006020601f8301049050919050565b600082821b905092915050565b6000600883026200070a7fffffffffffffffffffffffffffffffffffffffffffffffffffffffffffffffff82620006cb565b620007168683620006cb565b95508019841693508086168417925050509392505050565b6000819050919050565b6000819050919050565b6000620007636200075d62000757846200072e565b62000738565b6200072e565b9050919050565b6000819050919050565b6200077f8362000742565b620007976200078e826200076a565b848454620006d8565b825550505050565b600090565b620007ae6200079f565b620007bb81848462000774565b505050565b5b81811015620007e357620007d7600082620007a4565b600181019050620007c1565b5050565b601f8211156200083257620007fc81620006a6565b6200080784620006bb565b8101602085101562000817578190505b6200082f6200082685620006bb565b830182620007c0565b50505b505050565b600082821c905092915050565b6000620008576000198460080262000837565b1980831691505092915050565b600062000872838362000844565b9150826002028217905092915050565b6200088d8262000637565b67ffffffffffffffff811115620008a957620008a862000439565b5b620008b5825462000671565b620008c2828285620007e7565b600060209050601f831160018114620008fa5760008415620008e5578287015190505b620008f1858262000864565b86555062000961565b601f1984166200090a86620006a6565b60005b8281101562000934578489015182556001820191506020850194506020810190506200090d565b8683101562000954578489015162000950601f89168262000844565b8355505b6001600288020188555050505b505050505050565b600081519050919050565b600081905092915050565b60006200098c8262000969565b62000998818562000974565b9350620009aa818560208601620004f3565b80840191505092915050565b6000620009c482846200097f565b915081905092915050565b620009da816200072e565b8114620009e657600080fd5b50565b600081519050620009fa81620009cf565b92915050565b60006020828403121562000a195762000a186200039b565b5b600062000a2984828501620009e9565b91505092915050565b60805160a051614ad862000a6d6000396000610ae101526000818161086701528181610b9601528181611fef01526121540152614ad86000f3fe608060405234801561001057600080fd5b50600436106102325760003560e01c806370a0823111610130578063b460af94116100b8578063ce96cb771161007c578063ce96cb7714610787578063d547741f146107b7578063d905777e146107d3578063dd62ed3e14610803578063ef8b30f71461083357610232565b8063b460af94146106ab578063ba087652146106db578063c63d75b61461070b578063c6e6f5921461073b578063ca55c7641461076b57610232565b8063a217fddf116100ff578063a217fddf146105df578063a378a324146105fd578063a457c2d71461061b578063a9059cbb1461064b578063b3d7f6b91461067b57610232565b806370a082311461053157806391d148541461056157806394bf804d1461059157806395d89b41146105c157610232565b80632f2ff15d116101be578063402d267d11610182578063402d267d146104555780634525eeb2146104855780634841c79e146104b55780634cdad506146104d15780636e553f651461050157610232565b80632f2ff15d146103b1578063313ce567146103cd57806336568abe146103eb57806338d52e0f14610407578063395093511461042557610232565b8063095ea7b311610205578063095ea7b3146102d35780630a28a4771461030357806318160ddd1461033357806323b872dd14610351578063248a9ca31461038157610232565b806301e1d1141461023757806301ffc9a71461025557806306fdde031461028557806307a2d13a146102a3575b600080fd5b61023f610863565b60405161024c9190612ec9565b60405180910390f35b61026f600480360381019061026a9190612f50565b610904565b60405161027c9190612f98565b60405180910390f35b61028d61097e565b60405161029a9190613043565b60405180910390f35b6102bd60048036038101906102b89190613091565b610a10565b6040516102ca9190612ec9565b60405180910390f35b6102ed60048036038101906102e8919061311c565b610a24565b6040516102fa9190612f98565b60405180910390f35b61031d60048036038101906103189190613091565b610a47565b60405161032a9190612ec9565b60405180910390f35b61033b610a5b565b6040516103489190612ec9565b60405180910390f35b61036b6004803603810190610366919061315c565b610a65565b6040516103789190612f98565b60405180910390f35b61039b600480360381019061039691906131e5565b610a94565b6040516103a89190613221565b60405180910390f35b6103cb60048036038101906103c6919061323c565b610ab4565b005b6103d5610ad5565b6040516103e29190613298565b60405180910390f35b6104056004803603810190610400919061323c565b610b0f565b005b61040f610b92565b60405161041c91906132c2565b60405180910390f35b61043f600480360381019061043a919061311c565b610bba565b60405161044c9190612f98565b60405180910390f35b61046f600480360381019061046a91906132dd565b610bf1565b60405161047c9190612ec9565b60405180910390f35b61049f600480360381019061049a91906132dd565b610c1b565b6040516104ac9190612f98565b60405180910390f35b6104cf60048036038101906104ca9190613336565b610c3b565b005b6104eb60048036038101906104e69190613091565b610cf2565b6040516104f89190612ec9565b60405180910390f35b61051b60048036038101906105169190613376565b610d06565b6040516105289190612ec9565b60405180910390f35b61054b600480360381019061054691906132dd565b610d1a565b6040516105589190612ec9565b60405180910390f35b61057b6004803603810190610576919061323c565b610d62565b6040516105889190612f98565b60405180910390f35b6105ab60048036038101906105a69190613376565b610dcd565b6040516105b89190612ec9565b60405180910390f35b6105c9610e44565b6040516105d69190613043565b60405180910390f35b6105e7610ed6565b6040516105f49190613221565b60405180910390f35b610605610edd565b6040516106129190613221565b60405180910390f35b6106356004803603810190610630919061311c565b610f01565b6040516106429190612f98565b60405180910390f35b6106656004803603810190610660919061311c565b610f78565b6040516106729190612f98565b60405180910390f35b61069560048036038101906106909190613091565b610f9b565b6040516106a29190612ec9565b60405180910390f35b6106c560048036038101906106c091906133b6565b610faf565b6040516106d29190612ec9565b60405180910390f35b6106f560048036038101906106f091906133b6565b610fc5565b6040516107029190612ec9565b60405180910390f35b610725600480360381019061072091906132dd565b61103e565b6040516107329190612ec9565b60405180910390f35b61075560048036038101906107509190613091565b611068565b6040516107629190612ec9565b60405180910390f35b61078560048036038101906107809190613409565b61107c565b005b6107a1600480360381019061079c91906132dd565b6116be565b6040516107ae9190612ec9565b60405180910390f35b6107d160048036038101906107cc919061323c565b6116da565b005b6107ed60048036038101906107e891906132dd565b6116fb565b6040516107fa9190612ec9565b60405180910390f35b61081d60048036038101906108189190613470565b61170d565b60405161082a9190612ec9565b60405180910390f35b61084d60048036038101906108489190613091565b611794565b60405161085a9190612ec9565b60405180910390f35b60007f000000000000000000000000000000000000000000000000000000000000000073ffffffffffffffffffffffffffffffffffffffff166370a08231306040518263ffffffff1660e01b81526004016108be91906132c2565b602060405180830381865afa1580156108db573d6000803e3d6000fd5b505050506040513d601f19601f820116820180604052508101906108ff91906134c5565b905090565b60007f7965db0b000000000000000000000000000000000000000000000000000000007bffffffffffffffffffffffffffffffffffffffffffffffffffffffff1916827bffffffffffffffffffffffffffffffffffffffffffffffffffffffff191614806109775750610976826117a8565b5b9050919050565b60606003805461098d90613521565b80601f01602080910402602001604051908101604052809291908181526020018280546109b990613521565b8015610a065780601f106109db57610100808354040283529160200191610a06565b820191906000526020600020905b8154815290600101906020018083116109e957829003601f168201915b5050505050905090565b6000610a1d826000611812565b9050919050565b600080610a2f61186b565b9050610a3c818585611873565b600191505092915050565b6000610a54826001611a3c565b9050919050565b6000600254905090565b600080610a7061186b565b9050610a7d858285611a95565b610a88858585611b21565b60019150509392505050565b600060056000838152602001908152602001600020600101549050919050565b610abd82610a94565b610ac681611d97565b610ad08383611dab565b505050565b6000610adf611e8c565b7f0000000000000000000000000000000000000000000000000000000000000000610b0a9190613581565b905090565b610b1761186b565b73ffffffffffffffffffffffffffffffffffffffff168173ffffffffffffffffffffffffffffffffffffffff1614610b84576040517f08c379a0000000000000000000000000000000000000000000000000000000008152600401610b7b90613628565b60405180910390fd5b610b8e8282611e91565b5050565b60007f0000000000000000000000000000000000000000000000000000000000000000905090565b600080610bc561186b565b9050610be6818585610bd7858961170d565b610be19190613648565b611873565b600191505092915050565b60007fffffffffffffffffffffffffffffffffffffffffffffffffffffffffffffffff9050919050565b60076020528060005260406000206000915054906101000a900460ff1681565b6000801b610c4881611d97565b81600760008573ffffffffffffffffffffffffffffffffffffffff1673ffffffffffffffffffffffffffffffffffffffff16815260200190815260200160002060006101000a81548160ff0219169083151502179055508273ffffffffffffffffffffffffffffffffffffffff167f20f452f21f3f655ef588bfff20769de0ea12d29e13eca95441d59fa920e44ce583604051610ce59190612f98565b60405180910390a2505050565b6000610cff826000611812565b9050919050565b6000610d128383611f73565b905092915050565b60008060008373ffffffffffffffffffffffffffffffffffffffff1673ffffffffffffffffffffffffffffffffffffffff168152602001908152602001600020549050919050565b60006005600084815260200190815260200160002060000160008373ffffffffffffffffffffffffffffffffffffffff1673ffffffffffffffffffffffffffffffffffffffff16815260200190815260200160002060009054906101000a900460ff16905092915050565b6000610dd88261103e565b831115610e1a576040517f08c379a0000000000000000000000000000000000000000000000000000000008152600401610e11906136c8565b60405180910390fd5b6000610e2584610f9b565b9050610e3a610e3261186b565b848387611fea565b8091505092915050565b606060048054610e5390613521565b80601f0160208091040260200160405190810160405280929190818152602001828054610e7f90613521565b8015610ecc5780601f10610ea157610100808354040283529160200191610ecc565b820191906000526020600020905b815481529060010190602001808311610eaf57829003601f168201915b5050505050905090565b6000801b81565b7f17a8e30262c1f919c33056d877a3c22b95c2f5e4dac44683c1c2323cd79fbdb081565b600080610f0c61186b565b90506000610f1a828661170d565b905083811015610f5f576040517f08c379a0000000000000000000000000000000000000000000000000000000008152600401610f569061375a565b60405180910390fd5b610f6c8286868403611873565b60019250505092915050565b600080610f8361186b565b9050610f90818585611b21565b600191505092915050565b6000610fa8826001611812565b9050919050565b6000610fbc84848461208d565b90509392505050565b6000610fd0826116fb565b841115611012576040517f08c379a0000000000000000000000000000000000000000000000000000000008152600401611009906137c6565b60405180910390fd5b600061101d85610cf2565b905061103361102a61186b565b85858489612106565b809150509392505050565b60007fffffffffffffffffffffffffffffffffffffffffffffffffffffffffffffffff9050919050565b6000611075826000611a3c565b9050919050565b7f17a8e30262c1f919c33056d877a3c22b95c2f5e4dac44683c1c2323cd79fbdb06110a681611d97565b6110ae6121ff565b600760008673ffffffffffffffffffffffffffffffffffffffff1673ffffffffffffffffffffffffffffffffffffffff16815260200190815260200160002060009054906101000a900460ff1661113a576040517f08c379a000000000000000000000000000000000000000000000000000000000815260040161113190613832565b60405180910390fd5b600760008573ffffffffffffffffffffffffffffffffffffffff1673ffffffffffffffffffffffffffffffffffffffff16815260200190815260200160002060009054906101000a900460ff166111c6576040517f08c379a00000000000000000000000000000000000000000000000000000000081526004016111bd9061389e565b60405180910390fd5b60008211611209576040517f08c379a00000000000000000000000000000000000000000000000000000000081526004016112009061390a565b60405180910390fd5b6000611213610b92565b9050600061121f610863565b905083811015611264576040517f08c379a000000000000000000000000000000000000000000000000000000000815260040161125b90613976565b60405180910390fd5b61128f87858473ffffffffffffffffffffffffffffffffffffffff1661224e9092919063ffffffff16565b6000600267ffffffffffffffff8111156112ac576112ab613996565b5b6040519080825280602002602001820160405280156112da5781602001602082028036833780820191505090505b50905082816000815181106112f2576112f16139c5565b5b602002602001019073ffffffffffffffffffffffffffffffffffffffff16908173ffffffffffffffffffffffffffffffffffffffff16815250508581600181518110611341576113406139c5565b5b602002602001019073ffffffffffffffffffffffffffffffffffffffff16908173ffffffffffffffffffffffffffffffffffffffff168152505060008873ffffffffffffffffffffffffffffffffffffffff166338ed17398760008530426040518663ffffffff1660e01b81526004016113bf959493929190613af7565b6000604051808303816000875af11580156113de573d6000803e3d6000fd5b505050506040513d6000823e3d601f19601f820116820180604052508101906114079190613c6a565b905060008160018151811061141f5761141e6139c5565b5b6020026020010151905061145489828a73ffffffffffffffffffffffffffffffffffffffff1661224e9092919063ffffffff16565b6000600267ffffffffffffffff81111561147157611470613996565b5b60405190808252806020026020018201604052801561149f5781602001602082028036833780820191505090505b50905088816000815181106114b7576114b66139c5565b5b602002602001019073ffffffffffffffffffffffffffffffffffffffff16908173ffffffffffffffffffffffffffffffffffffffff16815250508581600181518110611506576115056139c5565b5b602002602001019073ffffffffffffffffffffffffffffffffffffffff16908173ffffffffffffffffffffffffffffffffffffffff16815250508973ffffffffffffffffffffffffffffffffffffffff166338ed17398360008430426040518663ffffffff1660e01b8152600401611582959493929190613af7565b6000604051808303816000875af11580156115a1573d6000803e3d6000fd5b505050506040513d6000823e3d601f19601f820116820180604052508101906115ca9190613c6a565b5060006115d5610863565b9050858111611619576040517f08c379a000000000000000000000000000000000000000000000000000000000815260040161161090613d25565b60405180910390fd5b600086826116279190613d45565b90508b73ffffffffffffffffffffffffffffffffffffffff168d73ffffffffffffffffffffffffffffffffffffffff163373ffffffffffffffffffffffffffffffffffffffff167f7794fe2b0e28c045219694f18c3eabf7b9408894d7295a71bd90753fc8e88d338e8560405161169f929190613d79565b60405180910390a450505050505050506116b7612360565b5050505050565b60006116d36116cc83610d1a565b6000611812565b9050919050565b6116e382610a94565b6116ec81611d97565b6116f68383611e91565b505050565b600061170682610d1a565b9050919050565b6000600160008473ffffffffffffffffffffffffffffffffffffffff1673ffffffffffffffffffffffffffffffffffffffff16815260200190815260200160002060008373ffffffffffffffffffffffffffffffffffffffff1673ffffffffffffffffffffffffffffffffffffffff16815260200190815260200160002054905092915050565b60006117a1826000611a3c565b9050919050565b60007f01ffc9a7000000000000000000000000000000000000000000000000000000007bffffffffffffffffffffffffffffffffffffffffffffffffffffffff1916827bffffffffffffffffffffffffffffffffffffffffffffffffffffffff1916149050919050565b60006118636001611821610863565b61182b9190613648565b611833611e8c565b600a61183f9190613ed5565b611847610a5b565b6118519190613648565b848661236a909392919063ffffffff16565b905092915050565b600033905090565b600073ffffffffffffffffffffffffffffffffffffffff168373ffffffffffffffffffffffffffffffffffffffff16036118e2576040517f08c379a00000000000000000000000000000000000000000000000000000000081526004016118d990613f92565b60405180910390fd5b600073ffffffffffffffffffffffffffffffffffffffff168273ffffffffffffffffffffffffffffffffffffffff1603611951576040517f08c379a000000000000000000000000000000000000000000000000000000000815260040161194890614024565b60405180910390fd5b80600160008573ffffffffffffffffffffffffffffffffffffffff1673ffffffffffffffffffffffffffffffffffffffff16815260200190815260200160002060008473ffffffffffffffffffffffffffffffffffffffff1673ffffffffffffffffffffffffffffffffffffffff168152602001908152602001600020819055508173ffffffffffffffffffffffffffffffffffffffff168373ffffffffffffffffffffffffffffffffffffffff167f8c5be1e5ebec7d5bd14f71427d1e84f3dd0314c0f7b2291e5b200ac8c7c3b92583604051611a2f9190612ec9565b60405180910390a3505050565b6000611a8d611a49611e8c565b600a611a559190613ed5565b611a5d610a5b565b611a679190613648565b6001611a71610863565b611a7b9190613648565b848661236a909392919063ffffffff16565b905092915050565b6000611aa1848461170d565b90507fffffffffffffffffffffffffffffffffffffffffffffffffffffffffffffffff8114611b1b5781811015611b0d576040517f08c379a0000000000000000000000000000000000000000000000000000000008152600401611b0490614090565b60405180910390fd5b611b1a8484848403611873565b5b50505050565b600073ffffffffffffffffffffffffffffffffffffffff168373ffffffffffffffffffffffffffffffffffffffff1603611b90576040517f08c379a0000000000000000000000000000000000000000000000000000000008152600401611b8790614122565b60405180910390fd5b600073ffffffffffffffffffffffffffffffffffffffff168273ffffffffffffffffffffffffffffffffffffffff1603611bff576040517f08c379a0000000000000000000000000000000000000000000000000000000008152600401611bf6906141b4565b60405180910390fd5b611c0a8383836123e0565b60008060008573ffffffffffffffffffffffffffffffffffffffff1673ffffffffffffffffffffffffffffffffffffffff16815260200190815260200160002054905081811015611c90576040517f08c379a0000000000000000000000000000000000000000000000000000000008152600401611c8790614246565b60405180910390fd5b8181036000808673ffffffffffffffffffffffffffffffffffffffff1673ffffffffffffffffffffffffffffffffffffffff16815260200190815260200160002081905550816000808573ffffffffffffffffffffffffffffffffffffffff1673ffffffffffffffffffffffffffffffffffffffff168152602001908152602001600020600082825401925050819055508273ffffffffffffffffffffffffffffffffffffffff168473ffffffffffffffffffffffffffffffffffffffff167fddf252ad1be2c89b69c2b068fc378daa952ba7f163c4a11628f55a4df523b3ef84604051611d7e9190612ec9565b60405180910390a3611d918484846123e5565b50505050565b611da881611da361186b565b6123ea565b50565b611db58282610d62565b611e885760016005600084815260200190815260200160002060000160008373ffffffffffffffffffffffffffffffffffffffff1673ffffffffffffffffffffffffffffffffffffffff16815260200190815260200160002060006101000a81548160ff021916908315150217905550611e2d61186b565b73ffffffffffffffffffffffffffffffffffffffff168173ffffffffffffffffffffffffffffffffffffffff16837f2f8788117e7eff1d82e926ec794901d17c78024a50270940304540a733656f0d60405160405180910390a45b5050565b600090565b611e9b8282610d62565b15611f6f5760006005600084815260200190815260200160002060000160008373ffffffffffffffffffffffffffffffffffffffff1673ffffffffffffffffffffffffffffffffffffffff16815260200190815260200160002060006101000a81548160ff021916908315150217905550611f1461186b565b73ffffffffffffffffffffffffffffffffffffffff168173ffffffffffffffffffffffffffffffffffffffff16837ff6391f5c32d9c69d2a47ea670b442974b53935d1edc7fd64eb21e047a839171b60405160405180910390a45b5050565b6000611f7e82610bf1565b831115611fc0576040517f08c379a0000000000000000000000000000000000000000000000000000000008152600401611fb7906142b2565b60405180910390fd5b6000611fcb84611794565b9050611fe0611fd861186b565b848684611fea565b8091505092915050565b6120167f000000000000000000000000000000000000000000000000000000000000000085308561246f565b61202083826124f8565b8273ffffffffffffffffffffffffffffffffffffffff168473ffffffffffffffffffffffffffffffffffffffff167fdcbc1c05240f31ff3ad067ef1ee35ce4997762752e3a095284754544f4c709d7848460405161207f9291906142d2565b60405180910390a350505050565b6000612098826116be565b8411156120da576040517f08c379a00000000000000000000000000000000000000000000000000000000081526004016120d190614347565b60405180910390fd5b60006120e585610a47565b90506120fb6120f261186b565b85858885612106565b809150509392505050565b8273ffffffffffffffffffffffffffffffffffffffff168573ffffffffffffffffffffffffffffffffffffffff161461214557612144838683611a95565b5b61214f838261264e565b61217a7f0000000000000000000000000000000000000000000000000000000000000000858461281b565b8273ffffffffffffffffffffffffffffffffffffffff168473ffffffffffffffffffffffffffffffffffffffff168673ffffffffffffffffffffffffffffffffffffffff167ffbde797d201c681b91056529119e0b02407c7bb96a4a2c75c01fc9667232c8db85856040516121f09291906142d2565b60405180910390a45050505050565b600260065403612244576040517f08c379a000000000000000000000000000000000000000000000000000000000815260040161223b906143b3565b60405180910390fd5b6002600681905550565b60008373ffffffffffffffffffffffffffffffffffffffff1663dd62ed3e30856040518363ffffffff1660e01b815260040161228b9291906143d3565b602060405180830381865afa1580156122a8573d6000803e3d6000fd5b505050506040513d601f19601f820116820180604052508101906122cc91906134c5565b905061235a8463095ea7b360e01b8585856122e79190613648565b6040516024016122f8929190613d79565b604051602081830303815290604052907bffffffffffffffffffffffffffffffffffffffffffffffffffffffff19166020820180517bffffffffffffffffffffffffffffffffffffffffffffffffffffffff83818316178352505050506128a1565b50505050565b6001600681905550565b600080612378868686612969565b90506001600281111561238e5761238d6143fc565b5b8360028111156123a1576123a06143fc565b5b1480156123bf5750600084806123ba576123b961442b565b5b868809115b156123d4576001816123d19190613648565b90505b80915050949350505050565b505050565b505050565b6123f48282610d62565b61246b5761240181612a7a565b61240f8360001c6020612aa7565b60405160200161242092919061452e565b6040516020818303038152906040526040517f08c379a00000000000000000000000000000000000000000000000000000000081526004016124629190613043565b60405180910390fd5b5050565b6124f2846323b872dd60e01b85858560405160240161249093929190614568565b604051602081830303815290604052907bffffffffffffffffffffffffffffffffffffffffffffffffffffffff19166020820180517bffffffffffffffffffffffffffffffffffffffffffffffffffffffff83818316178352505050506128a1565b50505050565b600073ffffffffffffffffffffffffffffffffffffffff168273ffffffffffffffffffffffffffffffffffffffff1603612567576040517f08c379a000000000000000000000000000000000000000000000000000000000815260040161255e906145eb565b60405180910390fd5b612573600083836123e0565b80600260008282546125859190613648565b92505081905550806000808473ffffffffffffffffffffffffffffffffffffffff1673ffffffffffffffffffffffffffffffffffffffff168152602001908152602001600020600082825401925050819055508173ffffffffffffffffffffffffffffffffffffffff16600073ffffffffffffffffffffffffffffffffffffffff167fddf252ad1be2c89b69c2b068fc378daa952ba7f163c4a11628f55a4df523b3ef836040516126369190612ec9565b60405180910390a361264a600083836123e5565b5050565b600073ffffffffffffffffffffffffffffffffffffffff168273ffffffffffffffffffffffffffffffffffffffff16036126bd576040517f08c379a00000000000000000000000000000000000000000000000000000000081526004016126b49061467d565b60405180910390fd5b6126c9826000836123e0565b60008060008473ffffffffffffffffffffffffffffffffffffffff1673ffffffffffffffffffffffffffffffffffffffff1681526020019081526020016000205490508181101561274f576040517f08c379a00000000000000000000000000000000000000000000000000000000081526004016127469061470f565b60405180910390fd5b8181036000808573ffffffffffffffffffffffffffffffffffffffff1673ffffffffffffffffffffffffffffffffffffffff1681526020019081526020016000208190555081600260008282540392505081905550600073ffffffffffffffffffffffffffffffffffffffff168373ffffffffffffffffffffffffffffffffffffffff167fddf252ad1be2c89b69c2b068fc378daa952ba7f163c4a11628f55a4df523b3ef846040516128029190612ec9565b60405180910390a3612816836000846123e5565b505050565b61289c8363a9059cbb60e01b848460405160240161283a929190613d79565b604051602081830303815290604052907bffffffffffffffffffffffffffffffffffffffffffffffffffffffff19166020820180517bffffffffffffffffffffffffffffffffffffffffffffffffffffffff83818316178352505050506128a1565b505050565b6000612903826040518060400160405280602081526020017f5361666545524332303a206c6f772d6c6576656c2063616c6c206661696c65648152508573ffffffffffffffffffffffffffffffffffffffff16612ce39092919063ffffffff16565b90506000815114806129255750808060200190518101906129249190614744565b5b612964576040517f08c379a000000000000000000000000000000000000000000000000000000000815260040161295b906147e3565b60405180910390fd5b505050565b60008060008019858709858702925082811083820303915050600081036129a45783828161299a5761299961442b565b5b0492505050612a73565b8084116129e6576040517f08c379a00000000000000000000000000000000000000000000000000000000081526004016129dd9061484f565b60405180910390fd5b60008486880990508281118203915080830392506000600186190186169050808604955080840493506001818260000304019050808302841793506000600287600302189050808702600203810290508087026002038102905080870260020381029050808702600203810290508087026002038102905080870260020381029050808502955050505050505b9392505050565b6060612aa08273ffffffffffffffffffffffffffffffffffffffff16601460ff16612aa7565b9050919050565b606060006002836002612aba919061486f565b612ac49190613648565b67ffffffffffffffff811115612add57612adc613996565b5b6040519080825280601f01601f191660200182016040528015612b0f5781602001600182028036833780820191505090505b5090507f300000000000000000000000000000000000000000000000000000000000000081600081518110612b4757612b466139c5565b5b60200101907effffffffffffffffffffffffffffffffffffffffffffffffffffffffffffff1916908160001a9053507f780000000000000000000000000000000000000000000000000000000000000081600181518110612bab57612baa6139c5565b5b60200101907effffffffffffffffffffffffffffffffffffffffffffffffffffffffffffff1916908160001a90535060006001846002612beb919061486f565b612bf59190613648565b90505b6001811115612c95577f3031323334353637383961626364656600000000000000000000000000000000600f861660108110612c3757612c366139c5565b5b1a60f81b828281518110612c4e57612c4d6139c5565b5b60200101907effffffffffffffffffffffffffffffffffffffffffffffffffffffffffffff1916908160001a905350600485901c945080612c8e906148b1565b9050612bf8565b5060008414612cd9576040517f08c379a0000000000000000000000000000000000000000000000000000000008152600401612cd090614926565b60405180910390fd5b8091505092915050565b6060612cf28484600085612cfb565b90509392505050565b606082471015612d40576040517f08c379a0000000000000000000000000000000000000000000000000000000008152600401612d37906149b8565b60405180910390fd5b6000808673ffffffffffffffffffffffffffffffffffffffff168587604051612d699190614a1f565b60006040518083038185875af1925050503d8060008114612da6576040519150601f19603f3d011682016040523d82523d6000602084013e612dab565b606091505b5091509150612dbc87838387612dc8565b92505050949350505050565b60608315612e2a576000835103612e2257612de285612e3d565b612e21576040517f08c379a0000000000000000000000000000000000000000000000000000000008152600401612e1890614a82565b60405180910390fd5b5b829050612e35565b612e348383612e60565b5b949350505050565b6000808273ffffffffffffffffffffffffffffffffffffffff163b119050919050565b600082511115612e735781518083602001fd5b806040517f08c379a0000000000000000000000000000000000000000000000000000000008152600401612ea79190613043565b60405180910390fd5b6000819050919050565b612ec381612eb0565b82525050565b6000602082019050612ede6000830184612eba565b92915050565b6000604051905090565b600080fd5b600080fd5b60007fffffffff0000000000000000000000000000000000000000000000000000000082169050919050565b612f2d81612ef8565b8114612f3857600080fd5b50565b600081359050612f4a81612f24565b92915050565b600060208284031215612f6657612f65612eee565b5b6000612f7484828501612f3b565b91505092915050565b60008115159050919050565b612f9281612f7d565b82525050565b6000602082019050612fad6000830184612f89565b92915050565b600081519050919050565b600082825260208201905092915050565b60005b83811015612fed578082015181840152602081019050612fd2565b60008484015250505050565b6000601f19601f8301169050919050565b600061301582612fb3565b61301f8185612fbe565b935061302f818560208601612fcf565b61303881612ff9565b840191505092915050565b6000602082019050818103600083015261305d818461300a565b905092915050565b61306e81612eb0565b811461307957600080fd5b50565b60008135905061308b81613065565b92915050565b6000602082840312156130a7576130a6612eee565b5b60006130b58482850161307c565b91505092915050565b600073ffffffffffffffffffffffffffffffffffffffff82169050919050565b60006130e9826130be565b9050919050565b6130f9816130de565b811461310457600080fd5b50565b600081359050613116816130f0565b92915050565b6000806040838503121561313357613132612eee565b5b600061314185828601613107565b92505060206131528582860161307c565b9150509250929050565b60008060006060848603121561317557613174612eee565b5b600061318386828701613107565b935050602061319486828701613107565b92505060406131a58682870161307c565b9150509250925092565b6000819050919050565b6131c2816131af565b81146131cd57600080fd5b50565b6000813590506131df816131b9565b92915050565b6000602082840312156131fb576131fa612eee565b5b6000613209848285016131d0565b91505092915050565b61321b816131af565b82525050565b60006020820190506132366000830184613212565b92915050565b6000806040838503121561325357613252612eee565b5b6000613261858286016131d0565b925050602061327285828601613107565b9150509250929050565b600060ff82169050919050565b6132928161327c565b82525050565b60006020820190506132ad6000830184613289565b92915050565b6132bc816130de565b82525050565b60006020820190506132d760008301846132b3565b92915050565b6000602082840312156132f3576132f2612eee565b5b600061330184828501613107565b91505092915050565b61331381612f7d565b811461331e57600080fd5b50565b6000813590506133308161330a565b92915050565b6000806040838503121561334d5761334c612eee565b5b600061335b85828601613107565b925050602061336c85828601613321565b9150509250929050565b6000806040838503121561338d5761338c612eee565b5b600061339b8582860161307c565b92505060206133ac85828601613107565b9150509250929050565b6000806000606084860312156133cf576133ce612eee565b5b60006133dd8682870161307c565b93505060206133ee86828701613107565b92505060406133ff86828701613107565b9150509250925092565b6000806000806080858703121561342357613422612eee565b5b600061343187828801613107565b945050602061344287828801613107565b935050604061345387828801613107565b92505060606134648782880161307c565b91505092959194509250565b6000806040838503121561348757613486612eee565b5b600061349585828601613107565b92505060206134a685828601613107565b9150509250929050565b6000815190506134bf81613065565b92915050565b6000602082840312156134db576134da612eee565b5b60006134e9848285016134b0565b91505092915050565b7f4e487b7100000000000000000000000000000000000000000000000000000000600052602260045260246000fd5b6000600282049050600182168061353957607f821691505b60208210810361354c5761354b6134f2565b5b50919050565b7f4e487b7100000000000000000000000000000000000000000000000000000000600052601160045260246000fd5b600061358c8261327c565b91506135978361327c565b9250828201905060ff8111156135b0576135af613552565b5b92915050565b7f416363657373436f6e74726f6c3a2063616e206f6e6c792072656e6f756e636560008201527f20726f6c657320666f722073656c660000000000000000000000000000000000602082015250565b6000613612602f83612fbe565b915061361d826135b6565b604082019050919050565b6000602082019050818103600083015261364181613605565b9050919050565b600061365382612eb0565b915061365e83612eb0565b925082820190508082111561367657613675613552565b5b92915050565b7f455243343632363a206d696e74206d6f7265207468616e206d61780000000000600082015250565b60006136b2601b83612fbe565b91506136bd8261367c565b602082019050919050565b600060208201905081810360008301526136e1816136a5565b9050919050565b7f45524332303a2064656372656173656420616c6c6f77616e63652062656c6f7760008201527f207a65726f000000000000000000000000000000000000000000000000000000602082015250565b6000613744602583612fbe565b915061374f826136e8565b604082019050919050565b6000602082019050818103600083015261377381613737565b9050919050565b7f455243343632363a2072656465656d206d6f7265207468616e206d6178000000600082015250565b60006137b0601d83612fbe565b91506137bb8261377a565b602082019050919050565b600060208201905081810360008301526137df816137a3565b9050919050565b7f44455820427579206e6f742077686974656c6973746564000000000000000000600082015250565b600061381c601783612fbe565b9150613827826137e6565b602082019050919050565b6000602082019050818103600083015261384b8161380f565b9050919050565b7f4445582053656c6c206e6f742077686974656c69737465640000000000000000600082015250565b6000613888601883612fbe565b915061389382613852565b602082019050919050565b600060208201905081810360008301526138b78161387b565b9050919050565b7f5a65726f20616d6f756e74000000000000000000000000000000000000000000600082015250565b60006138f4600b83612fbe565b91506138ff826138be565b602082019050919050565b60006020820190508181036000830152613923816138e7565b9050919050565b7f496e73756666696369656e74207661756c74206c697175696469747900000000600082015250565b6000613960601c83612fbe565b915061396b8261392a565b602082019050919050565b6000602082019050818103600083015261398f81613953565b9050919050565b7f4e487b7100000000000000000000000000000000000000000000000000000000600052604160045260246000fd5b7f4e487b7100000000000000000000000000000000000000000000000000000000600052603260045260246000fd5b6000819050919050565b6000819050919050565b6000613a23613a1e613a19846139f4565b6139fe565b612eb0565b9050919050565b613a3381613a08565b82525050565b600081519050919050565b600082825260208201905092915050565b6000819050602082019050919050565b613a6e816130de565b82525050565b6000613a808383613a65565b60208301905092915050565b6000602082019050919050565b6000613aa482613a39565b613aae8185613a44565b9350613ab983613a55565b8060005b83811015613aea578151613ad18882613a74565b9750613adc83613a8c565b925050600181019050613abd565b5085935050505092915050565b600060a082019050613b0c6000830188612eba565b613b196020830187613a2a565b8181036040830152613b2b8186613a99565b9050613b3a60608301856132b3565b613b476080830184612eba565b9695505050505050565b600080fd5b613b5f82612ff9565b810181811067ffffffffffffffff82111715613b7e57613b7d613996565b5b80604052505050565b6000613b91612ee4565b9050613b9d8282613b56565b919050565b600067ffffffffffffffff821115613bbd57613bbc613996565b5b602082029050602081019050919050565b600080fd5b6000613be6613be184613ba2565b613b87565b90508083825260208201905060208402830185811115613c0957613c08613bce565b5b835b81811015613c325780613c1e88826134b0565b845260208401935050602081019050613c0b565b5050509392505050565b600082601f830112613c5157613c50613b51565b5b8151613c61848260208601613bd3565b91505092915050565b600060208284031215613c8057613c7f612eee565b5b600082015167ffffffffffffffff811115613c9e57613c9d612ef3565b5b613caa84828501613c3c565b91505092915050565b7f41726269747261676520756e70726f66697461626c652c20726576657274696e60008201527f6700000000000000000000000000000000000000000000000000000000000000602082015250565b6000613d0f602183612fbe565b9150613d1a82613cb3565b604082019050919050565b60006020820190508181036000830152613d3e81613d02565b9050919050565b6000613d5082612eb0565b9150613d5b83612eb0565b9250828203905081811115613d7357613d72613552565b5b92915050565b6000604082019050613d8e60008301856132b3565b613d9b6020830184612eba565b9392505050565b60008160011c9050919050565b6000808291508390505b6001851115613df957808604811115613dd557613dd4613552565b5b6001851615613de45780820291505b8081029050613df285613da2565b9450613db9565b94509492505050565b600082613e125760019050613ece565b81613e205760009050613ece565b8160018114613e365760028114613e4057613e6f565b6001915050613ece565b60ff841115613e5257613e51613552565b5b8360020a915084821115613e6957613e68613552565b5b50613ece565b5060208310610133831016604e8410600b8410161715613ea45782820a905083811115613e9f57613e9e613552565b5b613ece565b613eb18484846001613daf565b92509050818404811115613ec857613ec7613552565b5b81810290505b9392505050565b6000613ee082612eb0565b9150613eeb8361327c565b9250613f187fffffffffffffffffffffffffffffffffffffffffffffffffffffffffffffffff8484613e02565b905092915050565b7f45524332303a20617070726f76652066726f6d20746865207a65726f2061646460008201527f7265737300000000000000000000000000000000000000000000000000000000602082015250565b6000613f7c602483612fbe565b9150613f8782613f20565b604082019050919050565b60006020820190508181036000830152613fab81613f6f565b9050919050565b7f45524332303a20617070726f766520746f20746865207a65726f20616464726560008201527f7373000000000000000000000000000000000000000000000000000000000000602082015250565b600061400e602283612fbe565b915061401982613fb2565b604082019050919050565b6000602082019050818103600083015261403d81614001565b9050919050565b7f45524332303a20696e73756666696369656e7420616c6c6f77616e6365000000600082015250565b600061407a601d83612fbe565b915061408582614044565b602082019050919050565b600060208201905081810360008301526140a98161406d565b9050919050565b7f45524332303a207472616e736665722066726f6d20746865207a65726f20616460008201527f6472657373000000000000000000000000000000000000000000000000000000602082015250565b600061410c602583612fbe565b9150614117826140b0565b604082019050919050565b6000602082019050818103600083015261413b816140ff565b9050919050565b7f45524332303a207472616e7366657220746f20746865207a65726f206164647260008201527f6573730000000000000000000000000000000000000000000000000000000000602082015250565b600061419e602383612fbe565b91506141a982614142565b604082019050919050565b600060208201905081810360008301526141cd81614191565b9050919050565b7f45524332303a207472616e7366657220616d6f756e742065786365656473206260008201527f616c616e63650000000000000000000000000000000000000000000000000000602082015250565b6000614230602683612fbe565b915061423b826141d4565b604082019050919050565b6000602082019050818103600083015261425f81614223565b9050919050565b7f455243343632363a206465706f736974206d6f7265207468616e206d61780000600082015250565b600061429c601e83612fbe565b91506142a782614266565b602082019050919050565b600060208201905081810360008301526142cb8161428f565b9050919050565b60006040820190506142e76000830185612eba565b6142f46020830184612eba565b9392505050565b7f455243343632363a207769746864726177206d6f7265207468616e206d617800600082015250565b6000614331601f83612fbe565b915061433c826142fb565b602082019050919050565b6000602082019050818103600083015261436081614324565b9050919050565b7f5265656e7472616e637947756172643a207265656e7472616e742063616c6c00600082015250565b600061439d601f83612fbe565b91506143a882614367565b602082019050919050565b600060208201905081810360008301526143cc81614390565b9050919050565b60006040820190506143e860008301856132b3565b6143f560208301846132b3565b9392505050565b7f4e487b7100000000000000000000000000000000000000000000000000000000600052602160045260246000fd5b7f4e487b7100000000000000000000000000000000000000000000000000000000600052601260045260246000fd5b600081905092915050565b7f416363657373436f6e74726f6c3a206163636f756e7420000000000000000000600082015250565b600061449b60178361445a565b91506144a682614465565b601782019050919050565b60006144bc82612fb3565b6144c6818561445a565b93506144d6818560208601612fcf565b80840191505092915050565b7f206973206d697373696e6720726f6c6520000000000000000000000000000000600082015250565b600061451860118361445a565b9150614523826144e2565b601182019050919050565b60006145398261448e565b915061454582856144b1565b91506145508261450b565b915061455c82846144b1565b91508190509392505050565b600060608201905061457d60008301866132b3565b61458a60208301856132b3565b6145976040830184612eba565b949350505050565b7f45524332303a206d696e7420746f20746865207a65726f206164647265737300600082015250565b60006145d5601f83612fbe565b91506145e08261459f565b602082019050919050565b60006020820190508181036000830152614604816145c8565b9050919050565b7f45524332303a206275726e2066726f6d20746865207a65726f2061646472657360008201527f7300000000000000000000000000000000000000000000000000000000000000602082015250565b6000614667602183612fbe565b91506146728261460b565b604082019050919050565b600060208201905081810360008301526146968161465a565b9050919050565b7f45524332303a206275726e20616d6f756e7420657863656564732062616c616e60008201527f6365000000000000000000000000000000000000000000000000000000000000602082015250565b60006146f9602283612fbe565b91506147048261469d565b604082019050919050565b60006020820190508181036000830152614728816146ec565b9050919050565b60008151905061473e8161330a565b92915050565b60006020828403121561475a57614759612eee565b5b60006147688482850161472f565b91505092915050565b7f5361666545524332303a204552433230206f7065726174696f6e20646964206e60008201527f6f74207375636365656400000000000000000000000000000000000000000000602082015250565b60006147cd602a83612fbe565b91506147d882614771565b604082019050919050565b600060208201905081810360008301526147fc816147c0565b9050919050565b7f4d6174683a206d756c446976206f766572666c6f770000000000000000000000600082015250565b6000614839601583612fbe565b915061484482614803565b602082019050919050565b600060208201905081810360008301526148688161482c565b9050919050565b600061487a82612eb0565b915061488583612eb0565b925082820261489381612eb0565b915082820484148315176148aa576148a9613552565b5b5092915050565b60006148bc82612eb0565b9150600082036148cf576148ce613552565b5b600182039050919050565b7f537472696e67733a20686578206c656e67746820696e73756666696369656e74600082015250565b6000614910602083612fbe565b915061491b826148da565b602082019050919050565b6000602082019050818103600083015261493f81614903565b9050919050565b7f416464726573733a20696e73756666696369656e742062616c616e636520666f60008201527f722063616c6c0000000000000000000000000000000000000000000000000000602082015250565b60006149a2602683612fbe565b91506149ad82614946565b604082019050919050565b600060208201905081810360008301526149d181614995565b9050919050565b600081519050919050565b600081905092915050565b60006149f9826149d8565b614a0381856149e3565b9350614a13818560208601612fcf565b80840191505092915050565b6000614a2b82846149ee565b915081905092915050565b7f416464726573733a2063616c6c20746f206e6f6e2d636f6e7472616374000000600082015250565b6000614a6c601d83612fbe565b9150614a7782614a36565b602082019050919050565b60006020820190508181036000830152614a9b81614a5f565b905091905056fea26469706673582212203ade720304fb9fe13c75cdabb62d5cacd7ad4525041c3f8c561a92d11d908f1364736f6c63430008140033",
  "linkReferences": {},
  "deployedLinkReferences": {}
}